{
  "_format": "hh-sol-artifact-1",
  "contractName": "NirvanaToken",
  "sourceName": "contracts/NirvanaToken.sol",
  "abi": [
    {
      "inputs": [
        {
          "internalType": "uint256",
          "name": "initialSupply",
          "type": "uint256"
        }
      ],
      "stateMutability": "nonpayable",
      "type": "constructor"
    },
    {
      "inputs": [
        {
          "internalType": "address",
          "name": "spender",
          "type": "address"
        },
        {
          "internalType": "uint256",
          "name": "allowance",
          "type": "uint256"
        },
        {
          "internalType": "uint256",
          "name": "needed",
          "type": "uint256"
        }
      ],
      "name": "ERC20InsufficientAllowance",
      "type": "error"
    },
    {
      "inputs": [
        {
          "internalType": "address",
          "name": "sender",
          "type": "address"
        },
        {
          "internalType": "uint256",
          "name": "balance",
          "type": "uint256"
        },
        {
          "internalType": "uint256",
          "name": "needed",
          "type": "uint256"
        }
      ],
      "name": "ERC20InsufficientBalance",
      "type": "error"
    },
    {
      "inputs": [
        {
          "internalType": "address",
          "name": "approver",
          "type": "address"
        }
      ],
      "name": "ERC20InvalidApprover",
      "type": "error"
    },
    {
      "inputs": [
        {
          "internalType": "address",
          "name": "receiver",
          "type": "address"
        }
      ],
      "name": "ERC20InvalidReceiver",
      "type": "error"
    },
    {
      "inputs": [
        {
          "internalType": "address",
          "name": "sender",
          "type": "address"
        }
      ],
      "name": "ERC20InvalidSender",
      "type": "error"
    },
    {
      "inputs": [
        {
          "internalType": "address",
          "name": "spender",
          "type": "address"
        }
      ],
      "name": "ERC20InvalidSpender",
      "type": "error"
    },
    {
      "inputs": [
        {
          "internalType": "address",
          "name": "owner",
          "type": "address"
        }
      ],
      "name": "OwnableInvalidOwner",
      "type": "error"
    },
    {
      "inputs": [
        {
          "internalType": "address",
          "name": "account",
          "type": "address"
        }
      ],
      "name": "OwnableUnauthorizedAccount",
      "type": "error"
    },
    {
      "anonymous": false,
      "inputs": [
        {
          "indexed": true,
          "internalType": "address",
          "name": "account",
          "type": "address"
        }
      ],
      "name": "AddedToWhitelist",
      "type": "event"
    },
    {
      "anonymous": false,
      "inputs": [
        {
          "indexed": true,
          "internalType": "address",
          "name": "owner",
          "type": "address"
        },
        {
          "indexed": true,
          "internalType": "address",
          "name": "spender",
          "type": "address"
        },
        {
          "indexed": false,
          "internalType": "uint256",
          "name": "value",
          "type": "uint256"
        }
      ],
      "name": "Approval",
      "type": "event"
    },
    {
      "anonymous": false,
      "inputs": [
        {
          "indexed": true,
          "internalType": "address",
          "name": "previousOwner",
          "type": "address"
        },
        {
          "indexed": true,
          "internalType": "address",
          "name": "newOwner",
          "type": "address"
        }
      ],
      "name": "OwnershipTransferred",
      "type": "event"
    },
    {
      "anonymous": false,
      "inputs": [
        {
          "indexed": true,
          "internalType": "address",
          "name": "account",
          "type": "address"
        }
      ],
      "name": "RemovedFromWhitelist",
      "type": "event"
    },
    {
      "anonymous": false,
      "inputs": [
        {
          "indexed": true,
          "internalType": "address",
          "name": "from",
          "type": "address"
        },
        {
          "indexed": true,
          "internalType": "address",
          "name": "to",
          "type": "address"
        },
        {
          "indexed": false,
          "internalType": "uint256",
          "name": "value",
          "type": "uint256"
        }
      ],
      "name": "Transfer",
      "type": "event"
    },
    {
      "inputs": [
        {
          "internalType": "address[]",
          "name": "accounts",
          "type": "address[]"
        }
      ],
      "name": "addBatchToWhitelist",
      "outputs": [],
      "stateMutability": "nonpayable",
      "type": "function"
    },
    {
      "inputs": [
        {
          "internalType": "address",
          "name": "account",
          "type": "address"
        }
      ],
      "name": "addToWhitelist",
      "outputs": [],
      "stateMutability": "nonpayable",
      "type": "function"
    },
    {
      "inputs": [
        {
          "internalType": "address",
          "name": "owner",
          "type": "address"
        },
        {
          "internalType": "address",
          "name": "spender",
          "type": "address"
        }
      ],
      "name": "allowance",
      "outputs": [
        {
          "internalType": "uint256",
          "name": "",
          "type": "uint256"
        }
      ],
      "stateMutability": "view",
      "type": "function"
    },
    {
      "inputs": [
        {
          "internalType": "address",
          "name": "spender",
          "type": "address"
        },
        {
          "internalType": "uint256",
          "name": "value",
          "type": "uint256"
        }
      ],
      "name": "approve",
      "outputs": [
        {
          "internalType": "bool",
          "name": "",
          "type": "bool"
        }
      ],
      "stateMutability": "nonpayable",
      "type": "function"
    },
    {
      "inputs": [
        {
          "internalType": "address",
          "name": "account",
          "type": "address"
        }
      ],
      "name": "balanceOf",
      "outputs": [
        {
          "internalType": "uint256",
          "name": "",
          "type": "uint256"
        }
      ],
      "stateMutability": "view",
      "type": "function"
    },
    {
      "inputs": [],
      "name": "decimals",
      "outputs": [
        {
          "internalType": "uint8",
          "name": "",
          "type": "uint8"
        }
      ],
      "stateMutability": "view",
      "type": "function"
    },
    {
      "inputs": [
        {
          "internalType": "address",
          "name": "account",
          "type": "address"
        }
      ],
      "name": "isWhitelisted",
      "outputs": [
        {
          "internalType": "bool",
          "name": "",
          "type": "bool"
        }
      ],
      "stateMutability": "view",
      "type": "function"
    },
    {
      "inputs": [],
      "name": "name",
      "outputs": [
        {
          "internalType": "string",
          "name": "",
          "type": "string"
        }
      ],
      "stateMutability": "view",
      "type": "function"
    },
    {
      "inputs": [],
      "name": "owner",
      "outputs": [
        {
          "internalType": "address",
          "name": "",
          "type": "address"
        }
      ],
      "stateMutability": "view",
      "type": "function"
    },
    {
      "inputs": [
        {
          "internalType": "address",
          "name": "account",
          "type": "address"
        }
      ],
      "name": "removeFromWhitelist",
      "outputs": [],
      "stateMutability": "nonpayable",
      "type": "function"
    },
    {
      "inputs": [],
      "name": "renounceOwnership",
      "outputs": [],
      "stateMutability": "nonpayable",
      "type": "function"
    },
    {
      "inputs": [],
      "name": "symbol",
      "outputs": [
        {
          "internalType": "string",
          "name": "",
          "type": "string"
        }
      ],
      "stateMutability": "view",
      "type": "function"
    },
    {
      "inputs": [],
      "name": "totalSupply",
      "outputs": [
        {
          "internalType": "uint256",
          "name": "",
          "type": "uint256"
        }
      ],
      "stateMutability": "view",
      "type": "function"
    },
    {
      "inputs": [
        {
          "internalType": "address",
          "name": "to",
          "type": "address"
        },
        {
          "internalType": "uint256",
          "name": "value",
          "type": "uint256"
        }
      ],
      "name": "transfer",
      "outputs": [
        {
          "internalType": "bool",
          "name": "",
          "type": "bool"
        }
      ],
      "stateMutability": "nonpayable",
      "type": "function"
    },
    {
      "inputs": [
        {
          "internalType": "address",
          "name": "from",
          "type": "address"
        },
        {
          "internalType": "address",
          "name": "to",
          "type": "address"
        },
        {
          "internalType": "uint256",
          "name": "value",
          "type": "uint256"
        }
      ],
      "name": "transferFrom",
      "outputs": [
        {
          "internalType": "bool",
          "name": "",
          "type": "bool"
        }
      ],
      "stateMutability": "nonpayable",
      "type": "function"
    },
    {
      "inputs": [
        {
          "internalType": "address",
          "name": "newOwner",
          "type": "address"
        }
      ],
      "name": "transferOwnership",
      "outputs": [],
      "stateMutability": "nonpayable",
      "type": "function"
    }
  ],
  "bytecode": "0x60806040523480156200001157600080fd5b50604051620028dd380380620028dd833981810160405281019062000037919062000679565b336040518060400160405280600d81526020017f4e697276616e6120546f6b656e000000000000000000000000000000000000008152506040518060400160405280600381526020017f4e534300000000000000000000000000000000000000000000000000000000008152508160039081620000b591906200091b565b508060049081620000c791906200091b565b505050600073ffffffffffffffffffffffffffffffffffffffff168173ffffffffffffffffffffffffffffffffffffffff16036200013f5760006040517f1e4fbdf700000000000000000000000000000000000000000000000000000000815260040162000136919062000a47565b60405180910390fd5b62000150816200019460201b60201c565b506200018d33620001666200025a60201b60201c565b600a62000174919062000bf4565b8362000181919062000c45565b6200026360201b60201c565b5062000ddf565b6000600560009054906101000a900473ffffffffffffffffffffffffffffffffffffffff16905081600560006101000a81548173ffffffffffffffffffffffffffffffffffffffff021916908373ffffffffffffffffffffffffffffffffffffffff1602179055508173ffffffffffffffffffffffffffffffffffffffff168173ffffffffffffffffffffffffffffffffffffffff167f8be0079c531659141344cd1fd0a4f28419497f9722a3daafe3b4186f6b6457e060405160405180910390a35050565b60006012905090565b600073ffffffffffffffffffffffffffffffffffffffff168273ffffffffffffffffffffffffffffffffffffffff1603620002d85760006040517fec442f05000000000000000000000000000000000000000000000000000000008152600401620002cf919062000a47565b60405180910390fd5b620002ec60008383620002f060201b60201c565b5050565b600073ffffffffffffffffffffffffffffffffffffffff168373ffffffffffffffffffffffffffffffffffffffff16141580156200035b5750600073ffffffffffffffffffffffffffffffffffffffff168273ffffffffffffffffffffffffffffffffffffffff1614155b15620003f157600660008373ffffffffffffffffffffffffffffffffffffffff1673ffffffffffffffffffffffffffffffffffffffff16815260200190815260200160002060009054906101000a900460ff16620003f0576040517f08c379a0000000000000000000000000000000000000000000000000000000008152600401620003e79062000d17565b60405180910390fd5b5b620004048383836200040960201b60201c565b505050565b600073ffffffffffffffffffffffffffffffffffffffff168373ffffffffffffffffffffffffffffffffffffffff16036200045f57806002600082825462000452919062000d39565b9250508190555062000535565b60008060008573ffffffffffffffffffffffffffffffffffffffff1673ffffffffffffffffffffffffffffffffffffffff16815260200190815260200160002054905081811015620004ee578381836040517fe450d38c000000000000000000000000000000000000000000000000000000008152600401620004e59392919062000d85565b60405180910390fd5b8181036000808673ffffffffffffffffffffffffffffffffffffffff1673ffffffffffffffffffffffffffffffffffffffff16815260200190815260200160002081905550505b600073ffffffffffffffffffffffffffffffffffffffff168273ffffffffffffffffffffffffffffffffffffffff1603620005805780600260008282540392505081905550620005cd565b806000808473ffffffffffffffffffffffffffffffffffffffff1673ffffffffffffffffffffffffffffffffffffffff168152602001908152602001600020600082825401925050819055505b8173ffffffffffffffffffffffffffffffffffffffff168373ffffffffffffffffffffffffffffffffffffffff167fddf252ad1be2c89b69c2b068fc378daa952ba7f163c4a11628f55a4df523b3ef836040516200062c919062000dc2565b60405180910390a3505050565b600080fd5b6000819050919050565b62000653816200063e565b81146200065f57600080fd5b50565b600081519050620006738162000648565b92915050565b60006020828403121562000692576200069162000639565b5b6000620006a28482850162000662565b91505092915050565b600081519050919050565b7f4e487b7100000000000000000000000000000000000000000000000000000000600052604160045260246000fd5b7f4e487b7100000000000000000000000000000000000000000000000000000000600052602260045260246000fd5b600060028204905060018216806200072d57607f821691505b602082108103620007435762000742620006e5565b5b50919050565b60008190508160005260206000209050919050565b60006020601f8301049050919050565b600082821b905092915050565b600060088302620007ad7fffffffffffffffffffffffffffffffffffffffffffffffffffffffffffffffff826200076e565b620007b986836200076e565b95508019841693508086168417925050509392505050565b6000819050919050565b6000620007fc620007f6620007f0846200063e565b620007d1565b6200063e565b9050919050565b6000819050919050565b6200081883620007db565b62000830620008278262000803565b8484546200077b565b825550505050565b600090565b6200084762000838565b620008548184846200080d565b505050565b5b818110156200087c57620008706000826200083d565b6001810190506200085a565b5050565b601f821115620008cb57620008958162000749565b620008a0846200075e565b81016020851015620008b0578190505b620008c8620008bf856200075e565b83018262000859565b50505b505050565b600082821c905092915050565b6000620008f060001984600802620008d0565b1980831691505092915050565b60006200090b8383620008dd565b9150826002028217905092915050565b6200092682620006ab565b67ffffffffffffffff811115620009425762000941620006b6565b5b6200094e825462000714565b6200095b82828562000880565b600060209050601f8311600181146200099357600084156200097e578287015190505b6200098a8582620008fd565b865550620009fa565b601f198416620009a38662000749565b60005b82811015620009cd57848901518255600182019150602085019450602081019050620009a6565b86831015620009ed5784890151620009e9601f891682620008dd565b8355505b6001600288020188555050505b505050505050565b600073ffffffffffffffffffffffffffffffffffffffff82169050919050565b600062000a2f8262000a02565b9050919050565b62000a418162000a22565b82525050565b600060208201905062000a5e600083018462000a36565b92915050565b7f4e487b7100000000000000000000000000000000000000000000000000000000600052601160045260246000fd5b60008160011c9050919050565b6000808291508390505b600185111562000af25780860481111562000aca5762000ac962000a64565b5b600185161562000ada5780820291505b808102905062000aea8562000a93565b945062000aaa565b94509492505050565b60008262000b0d576001905062000be0565b8162000b1d576000905062000be0565b816001811462000b36576002811462000b415762000b77565b600191505062000be0565b60ff84111562000b565762000b5562000a64565b5b8360020a91508482111562000b705762000b6f62000a64565b5b5062000be0565b5060208310610133831016604e8410600b841016171562000bb15782820a90508381111562000bab5762000baa62000a64565b5b62000be0565b62000bc0848484600162000aa0565b9250905081840481111562000bda5762000bd962000a64565b5b81810290505b9392505050565b600060ff82169050919050565b600062000c01826200063e565b915062000c0e8362000be7565b925062000c3d7fffffffffffffffffffffffffffffffffffffffffffffffffffffffffffffffff848462000afb565b905092915050565b600062000c52826200063e565b915062000c5f836200063e565b925082820262000c6f816200063e565b9150828204841483151762000c895762000c8862000a64565b5b5092915050565b600082825260208201905092915050565b7f45524332303a207472616e7366657220746f206e6f6e2d77686974656c69737460008201527f6564206164647265737300000000000000000000000000000000000000000000602082015250565b600062000cff602a8362000c90565b915062000d0c8262000ca1565b604082019050919050565b6000602082019050818103600083015262000d328162000cf0565b9050919050565b600062000d46826200063e565b915062000d53836200063e565b925082820190508082111562000d6e5762000d6d62000a64565b5b92915050565b62000d7f816200063e565b82525050565b600060608201905062000d9c600083018662000a36565b62000dab602083018562000d74565b62000dba604083018462000d74565b949350505050565b600060208201905062000dd9600083018462000d74565b92915050565b611aee8062000def6000396000f3fe608060405234801561001057600080fd5b50600436106101005760003560e01c80638ab1d68111610097578063a9059cbb11610066578063a9059cbb1461029d578063dd62ed3e146102cd578063e43252d7146102fd578063f2fde38b1461031957610100565b80638ab1d681146102295780638da5cb5b1461024557806395d89b4114610263578063a3d19d8c1461028157610100565b8063313ce567116100d3578063313ce567146101a15780633af32abf146101bf57806370a08231146101ef578063715018a61461021f57610100565b806306fdde0314610105578063095ea7b31461012357806318160ddd1461015357806323b872dd14610171575b600080fd5b61010d610335565b60405161011a9190611418565b60405180910390f35b61013d600480360381019061013891906114d8565b6103c7565b60405161014a9190611533565b60405180910390f35b61015b6103ea565b604051610168919061155d565b60405180910390f35b61018b60048036038101906101869190611578565b6103f4565b6040516101989190611533565b60405180910390f35b6101a9610423565b6040516101b691906115e7565b60405180910390f35b6101d960048036038101906101d49190611602565b61042c565b6040516101e69190611533565b60405180910390f35b61020960048036038101906102049190611602565b610482565b604051610216919061155d565b60405180910390f35b6102276104ca565b005b610243600480360381019061023e9190611602565b6104de565b005b61024d610610565b60405161025a919061163e565b60405180910390f35b61026b61063a565b6040516102789190611418565b60405180910390f35b61029b600480360381019061029691906116be565b6106cc565b005b6102b760048036038101906102b291906114d8565b6108be565b6040516102c49190611533565b60405180910390f35b6102e760048036038101906102e2919061170b565b6108e1565b6040516102f4919061155d565b60405180910390f35b61031760048036038101906103129190611602565b610968565b005b610333600480360381019061032e9190611602565b610b0a565b005b6060600380546103449061177a565b80601f01602080910402602001604051908101604052809291908181526020018280546103709061177a565b80156103bd5780601f10610392576101008083540402835291602001916103bd565b820191906000526020600020905b8154815290600101906020018083116103a057829003601f168201915b5050505050905090565b6000806103d2610b90565b90506103df818585610b98565b600191505092915050565b6000600254905090565b6000806103ff610b90565b905061040c858285610baa565b610417858585610c3f565b60019150509392505050565b60006012905090565b6000600660008373ffffffffffffffffffffffffffffffffffffffff1673ffffffffffffffffffffffffffffffffffffffff16815260200190815260200160002060009054906101000a900460ff169050919050565b60008060008373ffffffffffffffffffffffffffffffffffffffff1673ffffffffffffffffffffffffffffffffffffffff168152602001908152602001600020549050919050565b6104d2610d33565b6104dc6000610dba565b565b6104e6610d33565b600660008273ffffffffffffffffffffffffffffffffffffffff1673ffffffffffffffffffffffffffffffffffffffff16815260200190815260200160002060009054906101000a900460ff16610572576040517f08c379a0000000000000000000000000000000000000000000000000000000008152600401610569906117f7565b60405180910390fd5b6000600660008373ffffffffffffffffffffffffffffffffffffffff1673ffffffffffffffffffffffffffffffffffffffff16815260200190815260200160002060006101000a81548160ff0219169083151502179055508073ffffffffffffffffffffffffffffffffffffffff167fcdd2e9b91a56913d370075169cefa1602ba36be5301664f752192bb1709df75760405160405180910390a250565b6000600560009054906101000a900473ffffffffffffffffffffffffffffffffffffffff16905090565b6060600480546106499061177a565b80601f01602080910402602001604051908101604052809291908181526020018280546106759061177a565b80156106c25780601f10610697576101008083540402835291602001916106c2565b820191906000526020600020905b8154815290600101906020018083116106a557829003601f168201915b5050505050905090565b6106d4610d33565b60005b828290508110156108b957600073ffffffffffffffffffffffffffffffffffffffff1683838381811061070d5761070c611817565b5b90506020020160208101906107229190611602565b73ffffffffffffffffffffffffffffffffffffffff16141580156107b757506006600084848481811061075857610757611817565b5b905060200201602081019061076d9190611602565b73ffffffffffffffffffffffffffffffffffffffff1673ffffffffffffffffffffffffffffffffffffffff16815260200190815260200160002060009054906101000a900460ff16155b156108a6576001600660008585858181106107d5576107d4611817565b5b90506020020160208101906107ea9190611602565b73ffffffffffffffffffffffffffffffffffffffff1673ffffffffffffffffffffffffffffffffffffffff16815260200190815260200160002060006101000a81548160ff02191690831515021790555082828281811061084e5761084d611817565b5b90506020020160208101906108639190611602565b73ffffffffffffffffffffffffffffffffffffffff167fa850ae9193f515cbae8d35e8925bd2be26627fc91bce650b8652ed254e9cab0360405160405180910390a25b80806108b190611875565b9150506106d7565b505050565b6000806108c9610b90565b90506108d6818585610c3f565b600191505092915050565b6000600160008473ffffffffffffffffffffffffffffffffffffffff1673ffffffffffffffffffffffffffffffffffffffff16815260200190815260200160002060008373ffffffffffffffffffffffffffffffffffffffff1673ffffffffffffffffffffffffffffffffffffffff16815260200190815260200160002054905092915050565b610970610d33565b600073ffffffffffffffffffffffffffffffffffffffff168173ffffffffffffffffffffffffffffffffffffffff16036109df576040517f08c379a00000000000000000000000000000000000000000000000000000000081526004016109d69061192f565b60405180910390fd5b600660008273ffffffffffffffffffffffffffffffffffffffff1673ffffffffffffffffffffffffffffffffffffffff16815260200190815260200160002060009054906101000a900460ff1615610a6c576040517f08c379a0000000000000000000000000000000000000000000000000000000008152600401610a639061199b565b60405180910390fd5b6001600660008373ffffffffffffffffffffffffffffffffffffffff1673ffffffffffffffffffffffffffffffffffffffff16815260200190815260200160002060006101000a81548160ff0219169083151502179055508073ffffffffffffffffffffffffffffffffffffffff167fa850ae9193f515cbae8d35e8925bd2be26627fc91bce650b8652ed254e9cab0360405160405180910390a250565b610b12610d33565b600073ffffffffffffffffffffffffffffffffffffffff168173ffffffffffffffffffffffffffffffffffffffff1603610b845760006040517f1e4fbdf7000000000000000000000000000000000000000000000000000000008152600401610b7b919061163e565b60405180910390fd5b610b8d81610dba565b50565b600033905090565b610ba58383836001610e80565b505050565b6000610bb684846108e1565b90507fffffffffffffffffffffffffffffffffffffffffffffffffffffffffffffffff811015610c395781811015610c29578281836040517ffb8f41b2000000000000000000000000000000000000000000000000000000008152600401610c20939291906119bb565b60405180910390fd5b610c3884848484036000610e80565b5b50505050565b600073ffffffffffffffffffffffffffffffffffffffff168373ffffffffffffffffffffffffffffffffffffffff1603610cb15760006040517f96c6fd1e000000000000000000000000000000000000000000000000000000008152600401610ca8919061163e565b60405180910390fd5b600073ffffffffffffffffffffffffffffffffffffffff168273ffffffffffffffffffffffffffffffffffffffff1603610d235760006040517fec442f05000000000000000000000000000000000000000000000000000000008152600401610d1a919061163e565b60405180910390fd5b610d2e838383611057565b505050565b610d3b610b90565b73ffffffffffffffffffffffffffffffffffffffff16610d59610610565b73ffffffffffffffffffffffffffffffffffffffff1614610db857610d7c610b90565b6040517f118cdaa7000000000000000000000000000000000000000000000000000000008152600401610daf919061163e565b60405180910390fd5b565b6000600560009054906101000a900473ffffffffffffffffffffffffffffffffffffffff16905081600560006101000a81548173ffffffffffffffffffffffffffffffffffffffff021916908373ffffffffffffffffffffffffffffffffffffffff1602179055508173ffffffffffffffffffffffffffffffffffffffff168173ffffffffffffffffffffffffffffffffffffffff167f8be0079c531659141344cd1fd0a4f28419497f9722a3daafe3b4186f6b6457e060405160405180910390a35050565b600073ffffffffffffffffffffffffffffffffffffffff168473ffffffffffffffffffffffffffffffffffffffff1603610ef25760006040517fe602df05000000000000000000000000000000000000000000000000000000008152600401610ee9919061163e565b60405180910390fd5b600073ffffffffffffffffffffffffffffffffffffffff168373ffffffffffffffffffffffffffffffffffffffff1603610f645760006040517f94280d62000000000000000000000000000000000000000000000000000000008152600401610f5b919061163e565b60405180910390fd5b81600160008673ffffffffffffffffffffffffffffffffffffffff1673ffffffffffffffffffffffffffffffffffffffff16815260200190815260200160002060008573ffffffffffffffffffffffffffffffffffffffff1673ffffffffffffffffffffffffffffffffffffffff168152602001908152602001600020819055508015611051578273ffffffffffffffffffffffffffffffffffffffff168473ffffffffffffffffffffffffffffffffffffffff167f8c5be1e5ebec7d5bd14f71427d1e84f3dd0314c0f7b2291e5b200ac8c7c3b92584604051611048919061155d565b60405180910390a35b50505050565b600073ffffffffffffffffffffffffffffffffffffffff168373ffffffffffffffffffffffffffffffffffffffff16141580156110c15750600073ffffffffffffffffffffffffffffffffffffffff168273ffffffffffffffffffffffffffffffffffffffff1614155b1561115357600660008373ffffffffffffffffffffffffffffffffffffffff1673ffffffffffffffffffffffffffffffffffffffff16815260200190815260200160002060009054906101000a900460ff16611152576040517f08c379a000000000000000000000000000000000000000000000000000000000815260040161114990611a64565b60405180910390fd5b5b61115e838383611163565b505050565b600073ffffffffffffffffffffffffffffffffffffffff168373ffffffffffffffffffffffffffffffffffffffff16036111b55780600260008282546111a99190611a84565b92505081905550611288565b60008060008573ffffffffffffffffffffffffffffffffffffffff1673ffffffffffffffffffffffffffffffffffffffff16815260200190815260200160002054905081811015611241578381836040517fe450d38c000000000000000000000000000000000000000000000000000000008152600401611238939291906119bb565b60405180910390fd5b8181036000808673ffffffffffffffffffffffffffffffffffffffff1673ffffffffffffffffffffffffffffffffffffffff16815260200190815260200160002081905550505b600073ffffffffffffffffffffffffffffffffffffffff168273ffffffffffffffffffffffffffffffffffffffff16036112d1578060026000828254039250508190555061131e565b806000808473ffffffffffffffffffffffffffffffffffffffff1673ffffffffffffffffffffffffffffffffffffffff168152602001908152602001600020600082825401925050819055505b8173ffffffffffffffffffffffffffffffffffffffff168373ffffffffffffffffffffffffffffffffffffffff167fddf252ad1be2c89b69c2b068fc378daa952ba7f163c4a11628f55a4df523b3ef8360405161137b919061155d565b60405180910390a3505050565b600081519050919050565b600082825260208201905092915050565b60005b838110156113c25780820151818401526020810190506113a7565b60008484015250505050565b6000601f19601f8301169050919050565b60006113ea82611388565b6113f48185611393565b93506114048185602086016113a4565b61140d816113ce565b840191505092915050565b6000602082019050818103600083015261143281846113df565b905092915050565b600080fd5b600080fd5b600073ffffffffffffffffffffffffffffffffffffffff82169050919050565b600061146f82611444565b9050919050565b61147f81611464565b811461148a57600080fd5b50565b60008135905061149c81611476565b92915050565b6000819050919050565b6114b5816114a2565b81146114c057600080fd5b50565b6000813590506114d2816114ac565b92915050565b600080604083850312156114ef576114ee61143a565b5b60006114fd8582860161148d565b925050602061150e858286016114c3565b9150509250929050565b60008115159050919050565b61152d81611518565b82525050565b60006020820190506115486000830184611524565b92915050565b611557816114a2565b82525050565b6000602082019050611572600083018461154e565b92915050565b6000806000606084860312156115915761159061143a565b5b600061159f8682870161148d565b93505060206115b08682870161148d565b92505060406115c1868287016114c3565b9150509250925092565b600060ff82169050919050565b6115e1816115cb565b82525050565b60006020820190506115fc60008301846115d8565b92915050565b6000602082840312156116185761161761143a565b5b60006116268482850161148d565b91505092915050565b61163881611464565b82525050565b6000602082019050611653600083018461162f565b92915050565b600080fd5b600080fd5b600080fd5b60008083601f84011261167e5761167d611659565b5b8235905067ffffffffffffffff81111561169b5761169a61165e565b5b6020830191508360208202830111156116b7576116b6611663565b5b9250929050565b600080602083850312156116d5576116d461143a565b5b600083013567ffffffffffffffff8111156116f3576116f261143f565b5b6116ff85828601611668565b92509250509250929050565b600080604083850312156117225761172161143a565b5b60006117308582860161148d565b92505060206117418582860161148d565b9150509250929050565b7f4e487b7100000000000000000000000000000000000000000000000000000000600052602260045260246000fd5b6000600282049050600182168061179257607f821691505b6020821081036117a5576117a461174b565b5b50919050565b7f4163636f756e74206973206e6f742077686974656c6973746564000000000000600082015250565b60006117e1601a83611393565b91506117ec826117ab565b602082019050919050565b60006020820190508181036000830152611810816117d4565b9050919050565b7f4e487b7100000000000000000000000000000000000000000000000000000000600052603260045260246000fd5b7f4e487b7100000000000000000000000000000000000000000000000000000000600052601160045260246000fd5b6000611880826114a2565b91507fffffffffffffffffffffffffffffffffffffffffffffffffffffffffffffffff82036118b2576118b1611846565b5b600182019050919050565b7f43616e6e6f7420616464207a65726f206164647265737320746f20776869746560008201527f6c69737400000000000000000000000000000000000000000000000000000000602082015250565b6000611919602483611393565b9150611924826118bd565b604082019050919050565b600060208201905081810360008301526119488161190c565b9050919050565b7f4163636f756e7420697320616c72656164792077686974656c69737465640000600082015250565b6000611985601e83611393565b91506119908261194f565b602082019050919050565b600060208201905081810360008301526119b481611978565b9050919050565b60006060820190506119d0600083018661162f565b6119dd602083018561154e565b6119ea604083018461154e565b949350505050565b7f45524332303a207472616e7366657220746f206e6f6e2d77686974656c69737460008201527f6564206164647265737300000000000000000000000000000000000000000000602082015250565b6000611a4e602a83611393565b9150611a59826119f2565b604082019050919050565b60006020820190508181036000830152611a7d81611a41565b9050919050565b6000611a8f826114a2565b9150611a9a836114a2565b9250828201905080821115611ab257611ab1611846565b5b9291505056fea2646970667358221220cffed15933f653ceb31610367357038eabdff807c10ec09a04273663129c876f64736f6c63430008140033",
  "linkReferences": {},
  "deployedLinkReferences": {}
}