{
  "_format": "hh-sol-artifact-1",
  "contractName": "CardTransactionRegistry",
  "sourceName": "contracts/CardTransactionRegistry.sol",
  "abi": [
    {
      "inputs": [
        {
          "internalType": "address",
          "name": "tokenAddress",
          "type": "address"
        },
        {
          "internalType": "address",
          "name": "_feeCollector",
          "type": "address"
        }
      ],
      "stateMutability": "nonpayable",
      "type": "constructor"
    },
    {
      "inputs": [],
      "name": "feeCollector",
      "outputs": [
        {
          "internalType": "address",
          "name": "",
          "type": "address"
        }
      ],
      "stateMutability": "view",
      "type": "function"
    },
    {
      "inputs": [],
      "name": "getAllTransactions",
      "outputs": [
        {
          "internalType": "string[]",
          "name": "cardIds",
          "type": "string[]"
        },
        {
          "internalType": "string[]",
          "name": "strhash",
          "type": "string[]"
        },
        {
          "internalType": "string[]",
          "name": "statuses",
          "type": "string[]"
        }
      ],
      "stateMutability": "view",
      "type": "function"
    },
    {
      "inputs": [],
      "name": "getTokenAddress",
      "outputs": [
        {
          "internalType": "address",
          "name": "",
          "type": "address"
        }
      ],
      "stateMutability": "view",
      "type": "function"
    },
    {
      "inputs": [
        {
          "internalType": "address",
          "name": "account",
          "type": "address"
        }
      ],
      "name": "isAddressWhitelisted",
      "outputs": [
        {
          "internalType": "bool",
          "name": "",
          "type": "bool"
        }
      ],
      "stateMutability": "view",
      "type": "function"
    },
    {
      "inputs": [
        {
          "internalType": "string",
          "name": "_strhash",
          "type": "string"
        }
      ],
      "name": "registerCardTransaction",
      "outputs": [],
      "stateMutability": "nonpayable",
      "type": "function"
    },
    {
      "inputs": [
        {
          "internalType": "string",
          "name": "_strhash",
          "type": "string"
        }
      ],
      "name": "registerCardTransactionW",
      "outputs": [],
      "stateMutability": "nonpayable",
      "type": "function"
    },
    {
      "inputs": [
        {
          "internalType": "string",
          "name": "_strhash",
          "type": "string"
        }
      ],
      "name": "searchCardTransactionR",
      "outputs": [],
      "stateMutability": "nonpayable",
      "type": "function"
    },
    {
      "inputs": [
        {
          "internalType": "string",
          "name": "_strhash",
          "type": "string"
        }
      ],
      "name": "searchCardTransactionWR",
      "outputs": [],
      "stateMutability": "nonpayable",
      "type": "function"
    },
    {
      "inputs": [],
      "name": "transactionFee",
      "outputs": [
        {
          "internalType": "uint256",
          "name": "",
          "type": "uint256"
        }
      ],
      "stateMutability": "view",
      "type": "function"
    },
    {
      "inputs": [
        {
          "internalType": "uint256",
          "name": "newFee",
          "type": "uint256"
        }
      ],
      "name": "updateTransactionFee",
      "outputs": [],
      "stateMutability": "nonpayable",
      "type": "function"
    }
  ],
  "bytecode": "0x6080604052670de0b6b3a76400006003553480156200001d57600080fd5b50604051620026ff380380620026ff833981810160405281019062000043919062000136565b816000806101000a81548173ffffffffffffffffffffffffffffffffffffffff021916908373ffffffffffffffffffffffffffffffffffffffff16021790555080600460006101000a81548173ffffffffffffffffffffffffffffffffffffffff021916908373ffffffffffffffffffffffffffffffffffffffff16021790555050506200017d565b600080fd5b600073ffffffffffffffffffffffffffffffffffffffff82169050919050565b6000620000fe82620000d1565b9050919050565b6200011081620000f1565b81146200011c57600080fd5b50565b600081519050620001308162000105565b92915050565b6000806040838503121562000150576200014f620000cc565b5b600062000160858286016200011f565b925050602062000173858286016200011f565b9150509250929050565b612572806200018d6000396000f3fe608060405234801561001057600080fd5b506004361061009e5760003560e01c80634696e8fb116100665780634696e8fb146101495780639ed3edf014610165578063be4867e014610183578063c415b95c1461019f578063db24fcf3146101bd5761009e565b80630ee97696146100a357806310fe9ae8146100bf57806313f44d10146100dd57806327506f531461010d57806341fe2c651461012d575b600080fd5b6100bd60048036038101906100b89190611628565b6101d9565b005b6100c7610273565b6040516100d49190611696565b60405180910390f35b6100f760048036038101906100f291906116dd565b61029c565b6040516101049190611725565b60405180910390f35b610115610340565b60405161012493929190611892565b60405180910390f35b61014760048036038101906101429190611a13565b6106a5565b005b610163600480360381019061015e9190611a13565b610919565b005b61016d610c1e565b60405161017a9190611a6b565b60405180910390f35b61019d60048036038101906101989190611a13565b610c24565b005b6101a7610f29565b6040516101b49190611696565b60405180910390f35b6101d760048036038101906101d29190611a13565b610f4f565b005b600460009054906101000a900473ffffffffffffffffffffffffffffffffffffffff1673ffffffffffffffffffffffffffffffffffffffff163373ffffffffffffffffffffffffffffffffffffffff1614610269576040517f08c379a000000000000000000000000000000000000000000000000000000000815260040161026090611b09565b60405180910390fd5b8060038190555050565b60008060009054906101000a900473ffffffffffffffffffffffffffffffffffffffff16905090565b60008060009054906101000a900473ffffffffffffffffffffffffffffffffffffffff1673ffffffffffffffffffffffffffffffffffffffff16633af32abf836040518263ffffffff1660e01b81526004016102f89190611696565b602060405180830381865afa158015610315573d6000803e3d6000fd5b505050506040513d601f19601f820116820180604052508101906103399190611b55565b9050919050565b60608060606000600280549050905060008167ffffffffffffffff81111561036b5761036a6118e8565b5b60405190808252806020026020018201604052801561039e57816020015b60608152602001906001900390816103895790505b50905060008267ffffffffffffffff8111156103bd576103bc6118e8565b5b6040519080825280602002602001820160405280156103f057816020015b60608152602001906001900390816103db5790505b50905060008367ffffffffffffffff81111561040f5761040e6118e8565b5b60405190808252806020026020018201604052801561044257816020015b606081526020019060019003908161042d5790505b50905060005b848110156106925760006002828154811061046657610465611b82565b5b90600052602060002001805461047b90611be0565b80601f01602080910402602001604051908101604052809291908181526020018280546104a790611be0565b80156104f45780601f106104c9576101008083540402835291602001916104f4565b820191906000526020600020905b8154815290600101906020018083116104d757829003601f168201915b50505050509050600060018260405161050d9190611c4d565b908152602001604051809103902060405180606001604052908160008201805461053690611be0565b80601f016020809104026020016040519081016040528092919081815260200182805461056290611be0565b80156105af5780601f10610584576101008083540402835291602001916105af565b820191906000526020600020905b81548152906001019060200180831161059257829003601f168201915b505050505081526020016001820160009054906101000a900460ff1660038111156105dd576105dc611c64565b5b60038111156105ef576105ee611c64565b5b81526020016001820160019054906101000a900460ff16151515158152505090508185848151811061062457610623611b82565b5b6020026020010181905250806000015186848151811061064757610646611b82565b5b602002602001018190525061065f8160200151611276565b84848151811061067257610671611b82565b5b60200260200101819052505050808061068a90611cc2565b915050610448565b5081838296509650965050505050909192565b60006106b48260888451611459565b90506001816040516106c69190611c4d565b908152602001604051809103902060010160019054906101000a900460ff1615610725576040517f08c379a000000000000000000000000000000000000000000000000000000000815260040161071c90611d7c565b60405180910390fd5b60008054906101000a900473ffffffffffffffffffffffffffffffffffffffff1673ffffffffffffffffffffffffffffffffffffffff166323b872dd33600460009054906101000a900473ffffffffffffffffffffffffffffffffffffffff166003546040518463ffffffff1660e01b81526004016107a693929190611d9c565b6020604051808303816000875af11580156107c5573d6000803e3d6000fd5b505050506040513d601f19601f820116820180604052508101906107e99190611b55565b610828576040517f08c379a000000000000000000000000000000000000000000000000000000000815260040161081f90611e1f565b60405180910390fd5b60405180606001604052808381526020016001600381111561084d5761084c611c64565b5b8152602001600115158152506001826040516108699190611c4d565b9081526020016040518091039020600082015181600001908161088c9190611feb565b5060208201518160010160006101000a81548160ff021916908360038111156108b8576108b7611c64565b5b021790555060408201518160010160016101000a81548160ff0219169083151502179055509050506002819080600181540180825580915050600190039060005260206000200160009091909190915090816109149190611feb565b505050565b60006109288260888451611459565b905060018160405161093a9190611c4d565b908152602001604051809103902060010160019054906101000a900460ff16610998576040517f08c379a000000000000000000000000000000000000000000000000000000000815260040161098f9061212f565b60405180910390fd5b60008054906101000a900473ffffffffffffffffffffffffffffffffffffffff1673ffffffffffffffffffffffffffffffffffffffff166323b872dd33600460009054906101000a900473ffffffffffffffffffffffffffffffffffffffff166003546040518463ffffffff1660e01b8152600401610a1993929190611d9c565b6020604051808303816000875af1158015610a38573d6000803e3d6000fd5b505050506040513d601f19601f82011682018060405250810190610a5c9190611b55565b610a9b576040517f08c379a0000000000000000000000000000000000000000000000000000000008152600401610a9290611e1f565b60405180910390fd5b6000600182604051610aad9190611c4d565b9081526020016040518091039020905060006003811115610ad157610ad0611c64565b5b8160010160009054906101000a900460ff166003811115610af557610af4611c64565b5b14610b35576040517f08c379a0000000000000000000000000000000000000000000000000000000008152600401610b2c906121c1565b60405180910390fd5b82604051602001610b469190611c4d565b6040516020818303038152906040528051906020012081600001604051602001610b709190612264565b604051602081830303815290604052805190602001201481600001604051602001610b9b91906122c7565b60405160208183030381529060405290610beb576040517f08c379a0000000000000000000000000000000000000000000000000000000008152600401610be29190612322565b60405180910390fd5b5060038160010160006101000a81548160ff02191690836003811115610c1457610c13611c64565b5b0217905550505050565b60035481565b6000610c338260888451611459565b9050600181604051610c459190611c4d565b908152602001604051809103902060010160019054906101000a900460ff16610ca3576040517f08c379a0000000000000000000000000000000000000000000000000000000008152600401610c9a9061212f565b60405180910390fd5b60008054906101000a900473ffffffffffffffffffffffffffffffffffffffff1673ffffffffffffffffffffffffffffffffffffffff166323b872dd33600460009054906101000a900473ffffffffffffffffffffffffffffffffffffffff166003546040518463ffffffff1660e01b8152600401610d2493929190611d9c565b6020604051808303816000875af1158015610d43573d6000803e3d6000fd5b505050506040513d601f19601f82011682018060405250810190610d679190611b55565b610da6576040517f08c379a0000000000000000000000000000000000000000000000000000000008152600401610d9d90611e1f565b60405180910390fd5b6000600182604051610db89190611c4d565b9081526020016040518091039020905060016003811115610ddc57610ddb611c64565b5b8160010160009054906101000a900460ff166003811115610e0057610dff611c64565b5b14610e40576040517f08c379a0000000000000000000000000000000000000000000000000000000008152600401610e37906123b6565b60405180910390fd5b82604051602001610e519190611c4d565b6040516020818303038152906040528051906020012081600001604051602001610e7b9190612264565b604051602081830303815290604052805190602001201481600001604051602001610ea691906122c7565b60405160208183030381529060405290610ef6576040517f08c379a0000000000000000000000000000000000000000000000000000000008152600401610eed9190612322565b60405180910390fd5b5060028160010160006101000a81548160ff02191690836003811115610f1f57610f1e611c64565b5b0217905550505050565b600460009054906101000a900473ffffffffffffffffffffffffffffffffffffffff1681565b6000610f5e8260888451611459565b9050600181604051610f709190611c4d565b908152602001604051809103902060010160019054906101000a900460ff1615610fcf576040517f08c379a0000000000000000000000000000000000000000000000000000000008152600401610fc690611d7c565b60405180910390fd5b60008054906101000a900473ffffffffffffffffffffffffffffffffffffffff1673ffffffffffffffffffffffffffffffffffffffff166323b872dd33600460009054906101000a900473ffffffffffffffffffffffffffffffffffffffff166003546040518463ffffffff1660e01b815260040161105093929190611d9c565b6020604051808303816000875af115801561106f573d6000803e3d6000fd5b505050506040513d601f19601f820116820180604052508101906110939190611b55565b6110d2576040517f08c379a00000000000000000000000000000000000000000000000000000000081526004016110c990611e1f565b60405180910390fd5b60006110e183602a6054611459565b9050600060019050600082905060005b815181101561116057602060f81b82828151811061111257611111611b82565b5b602001015160f81c60f81b7effffffffffffffffffffffffffffffffffffffffffffffffffffffffffffff19161461114d5760009250611160565b808061115890611cc2565b9150506110f1565b506000821580156111725750602a8251145b61117d576001611180565b60005b905060405180606001604052808781526020018260038111156111a6576111a5611c64565b5b8152602001600115158152506001866040516111c29190611c4d565b908152602001604051809103902060008201518160000190816111e59190611feb565b5060208201518160010160006101000a81548160ff0219169083600381111561121157611210611c64565b5b021790555060408201518160010160016101000a81548160ff02191690831515021790555090505060028590806001815401808255809150506001900390600052602060002001600090919091909150908161126d9190611feb565b50505050505050565b60606000600381111561128c5761128b611c64565b5b82600381111561129f5761129e611c64565b5b036112e1576040518060400160405280601581526020017f494e5f5452414e5349545f57484f4c4553414c455200000000000000000000008152509050611454565b600160038111156112f5576112f4611c64565b5b82600381111561130857611307611c64565b5b0361134a576040518060400160405280601381526020017f494e5f5452414e5349545f52455441494c4552000000000000000000000000008152509050611454565b6002600381111561135e5761135d611c64565b5b82600381111561137157611370611c64565b5b036113b3576040518060400160405280600981526020017f44454c49564552454400000000000000000000000000000000000000000000008152509050611454565b6003808111156113c6576113c5611c64565b5b8260038111156113d9576113d8611c64565b5b0361141b576040518060400160405280601381526020017f57484f4c4553414c45525f5245434549564544000000000000000000000000008152509050611454565b6040518060400160405280600e81526020017f696e76616c69645f73746174757300000000000000000000000000000000000081525090505b919050565b6060600084905080518311156114a4576040517f08c379a000000000000000000000000000000000000000000000000000000000815260040161149b90612422565b60405180910390fd5b8383116114e6576040517f08c379a00000000000000000000000000000000000000000000000000000000081526004016114dd906124b4565b60405180910390fd5b600084846114f491906124d4565b905060008167ffffffffffffffff811115611512576115116118e8565b5b6040519080825280601f01601f1916602001820160405280156115445781602001600182028036833780820191505090505b50905060005b828110156115d05783818861155f9190612508565b815181106115705761156f611b82565b5b602001015160f81c60f81b82828151811061158e5761158d611b82565b5b60200101907effffffffffffffffffffffffffffffffffffffffffffffffffffffffffffff1916908160001a90535080806115c890611cc2565b91505061154a565b508093505050509392505050565b6000604051905090565b600080fd5b600080fd5b6000819050919050565b611605816115f2565b811461161057600080fd5b50565b600081359050611622816115fc565b92915050565b60006020828403121561163e5761163d6115e8565b5b600061164c84828501611613565b91505092915050565b600073ffffffffffffffffffffffffffffffffffffffff82169050919050565b600061168082611655565b9050919050565b61169081611675565b82525050565b60006020820190506116ab6000830184611687565b92915050565b6116ba81611675565b81146116c557600080fd5b50565b6000813590506116d7816116b1565b92915050565b6000602082840312156116f3576116f26115e8565b5b6000611701848285016116c8565b91505092915050565b60008115159050919050565b61171f8161170a565b82525050565b600060208201905061173a6000830184611716565b92915050565b600081519050919050565b600082825260208201905092915050565b6000819050602082019050919050565b600081519050919050565b600082825260208201905092915050565b60005b838110156117a657808201518184015260208101905061178b565b60008484015250505050565b6000601f19601f8301169050919050565b60006117ce8261176c565b6117d88185611777565b93506117e8818560208601611788565b6117f1816117b2565b840191505092915050565b600061180883836117c3565b905092915050565b6000602082019050919050565b600061182882611740565b611832818561174b565b9350836020820285016118448561175c565b8060005b85811015611880578484038952815161186185826117fc565b945061186c83611810565b925060208a01995050600181019050611848565b50829750879550505050505092915050565b600060608201905081810360008301526118ac818661181d565b905081810360208301526118c0818561181d565b905081810360408301526118d4818461181d565b9050949350505050565b600080fd5b600080fd5b7f4e487b7100000000000000000000000000000000000000000000000000000000600052604160045260246000fd5b611920826117b2565b810181811067ffffffffffffffff8211171561193f5761193e6118e8565b5b80604052505050565b60006119526115de565b905061195e8282611917565b919050565b600067ffffffffffffffff82111561197e5761197d6118e8565b5b611987826117b2565b9050602081019050919050565b82818337600083830152505050565b60006119b66119b184611963565b611948565b9050828152602081018484840111156119d2576119d16118e3565b5b6119dd848285611994565b509392505050565b600082601f8301126119fa576119f96118de565b5b8135611a0a8482602086016119a3565b91505092915050565b600060208284031215611a2957611a286115e8565b5b600082013567ffffffffffffffff811115611a4757611a466115ed565b5b611a53848285016119e5565b91505092915050565b611a65816115f2565b82525050565b6000602082019050611a806000830184611a5c565b92915050565b600082825260208201905092915050565b7f4f6e6c792066656520636f6c6c6563746f722063616e2075706461746520666560008201527f6573000000000000000000000000000000000000000000000000000000000000602082015250565b6000611af3602283611a86565b9150611afe82611a97565b604082019050919050565b60006020820190508181036000830152611b2281611ae6565b9050919050565b611b328161170a565b8114611b3d57600080fd5b50565b600081519050611b4f81611b29565b92915050565b600060208284031215611b6b57611b6a6115e8565b5b6000611b7984828501611b40565b91505092915050565b7f4e487b7100000000000000000000000000000000000000000000000000000000600052603260045260246000fd5b7f4e487b7100000000000000000000000000000000000000000000000000000000600052602260045260246000fd5b60006002820490506001821680611bf857607f821691505b602082108103611c0b57611c0a611bb1565b5b50919050565b600081905092915050565b6000611c278261176c565b611c318185611c11565b9350611c41818560208601611788565b80840191505092915050565b6000611c598284611c1c565b915081905092915050565b7f4e487b7100000000000000000000000000000000000000000000000000000000600052602160045260246000fd5b7f4e487b7100000000000000000000000000000000000000000000000000000000600052601160045260246000fd5b6000611ccd826115f2565b91507fffffffffffffffffffffffffffffffffffffffffffffffffffffffffffffffff8203611cff57611cfe611c93565b5b600182019050919050565b7f5472616e73616374696f6e20776974682074686973206361726420494420616c60008201527f7265616479206578697374732100000000000000000000000000000000000000602082015250565b6000611d66602d83611a86565b9150611d7182611d0a565b604082019050919050565b60006020820190508181036000830152611d9581611d59565b9050919050565b6000606082019050611db16000830186611687565b611dbe6020830185611687565b611dcb6040830184611a5c565b949350505050565b7f466565207061796d656e74206661696c65640000000000000000000000000000600082015250565b6000611e09601283611a86565b9150611e1482611dd3565b602082019050919050565b60006020820190508181036000830152611e3881611dfc565b9050919050565b60008190508160005260206000209050919050565b60006020601f8301049050919050565b600082821b905092915050565b600060088302611ea17fffffffffffffffffffffffffffffffffffffffffffffffffffffffffffffffff82611e64565b611eab8683611e64565b95508019841693508086168417925050509392505050565b6000819050919050565b6000611ee8611ee3611ede846115f2565b611ec3565b6115f2565b9050919050565b6000819050919050565b611f0283611ecd565b611f16611f0e82611eef565b848454611e71565b825550505050565b600090565b611f2b611f1e565b611f36818484611ef9565b505050565b5b81811015611f5a57611f4f600082611f23565b600181019050611f3c565b5050565b601f821115611f9f57611f7081611e3f565b611f7984611e54565b81016020851015611f88578190505b611f9c611f9485611e54565b830182611f3b565b50505b505050565b600082821c905092915050565b6000611fc260001984600802611fa4565b1980831691505092915050565b6000611fdb8383611fb1565b9150826002028217905092915050565b611ff48261176c565b67ffffffffffffffff81111561200d5761200c6118e8565b5b6120178254611be0565b612022828285611f5e565b600060209050601f8311600181146120555760008415612043578287015190505b61204d8582611fcf565b8655506120b5565b601f19841661206386611e3f565b60005b8281101561208b57848901518255600182019150602085019450602081019050612066565b868310156120a857848901516120a4601f891682611fb1565b8355505b6001600288020188555050505b505050505050565b7f5472616e73616374696f6e20776974682074686973206361726420494420646f60008201527f6573206e6f742065786973742100000000000000000000000000000000000000602082015250565b6000612119602d83611a86565b9150612124826120bd565b604082019050919050565b600060208201905081810360008301526121488161210c565b9050919050565b7f5374617475732073686f756c6420626520494e5f5452414e5349545f57484f4c60008201527f4553414c45520000000000000000000000000000000000000000000000000000602082015250565b60006121ab602683611a86565b91506121b68261214f565b604082019050919050565b600060208201905081810360008301526121da8161219e565b9050919050565b600081546121ee81611be0565b6121f88186611c11565b9450600182166000811461221357600181146122285761225b565b60ff198316865281151582028601935061225b565b61223185611e3f565b60005b8381101561225357815481890152600182019150602081019050612234565b838801955050505b50505092915050565b600061227082846121e1565b915081905092915050565b7f48617368206d69736d617463683a200000000000000000000000000000000000600082015250565b60006122b1600f83611c11565b91506122bc8261227b565b600f82019050919050565b60006122d2826122a4565b91506122de82846121e1565b915081905092915050565b60006122f48261176c565b6122fe8185611a86565b935061230e818560208601611788565b612317816117b2565b840191505092915050565b6000602082019050818103600083015261233c81846122e9565b905092915050565b7f5374617475732073686f756c6420626520494e5f5452414e5349545f5245544160008201527f494c455200000000000000000000000000000000000000000000000000000000602082015250565b60006123a0602483611a86565b91506123ab82612344565b604082019050919050565b600060208201905081810360008301526123cf81612393565b9050919050565b7f456e6420696e646578206578636565647320737472696e67206c656e67746800600082015250565b600061240c601f83611a86565b9150612417826123d6565b602082019050919050565b6000602082019050818103600083015261243b816123ff565b9050919050565b7f456e6420696e646578206d7573742062652067726561746572207468616e207360008201527f7461727420696e64657800000000000000000000000000000000000000000000602082015250565b600061249e602a83611a86565b91506124a982612442565b604082019050919050565b600060208201905081810360008301526124cd81612491565b9050919050565b60006124df826115f2565b91506124ea836115f2565b925082820390508181111561250257612501611c93565b5b92915050565b6000612513826115f2565b915061251e836115f2565b925082820190508082111561253657612535611c93565b5b9291505056fea26469706673582212203a7858e3c382a38fe497356eaae0c2ce3634aefafeded22a0507551859fb70d364736f6c63430008140033",
  "linkReferences": {},
  "deployedLinkReferences": {}
}