{
  "_format": "hh-sol-artifact-1",
  "contractName": "CardTransactionRegistry",
  "sourceName": "contracts/CardTransactionRegistry.sol",
  "abi": [
    {
      "inputs": [],
      "name": "getAllTransactions",
      "outputs": [
        {
          "internalType": "string[]",
          "name": "cardIds",
          "type": "string[]"
        },
        {
          "internalType": "string[]",
          "name": "strhash",
          "type": "string[]"
        },
        {
          "internalType": "string[]",
          "name": "statuses",
          "type": "string[]"
        }
      ],
      "stateMutability": "view",
      "type": "function"
    },
    {
      "inputs": [
        {
          "internalType": "string",
          "name": "_strhash",
          "type": "string"
        }
      ],
      "name": "registerCardTransaction",
      "outputs": [],
      "stateMutability": "nonpayable",
      "type": "function"
    },
    {
      "inputs": [
        {
          "internalType": "string",
          "name": "_strhash",
          "type": "string"
        }
      ],
      "name": "registerCardTransactionW",
      "outputs": [],
      "stateMutability": "nonpayable",
      "type": "function"
    },
    {
      "inputs": [
        {
          "internalType": "string",
          "name": "_strhash",
          "type": "string"
        }
      ],
      "name": "searchCardTransactionR",
      "outputs": [],
      "stateMutability": "nonpayable",
      "type": "function"
    },
    {
      "inputs": [
        {
          "internalType": "string",
          "name": "_strhash",
          "type": "string"
        }
      ],
      "name": "searchCardTransactionWR",
      "outputs": [],
      "stateMutability": "nonpayable",
      "type": "function"
    }
  ],
  "bytecode": "0x608060405234801561001057600080fd5b50611e08806100206000396000f3fe608060405234801561001057600080fd5b50600436106100575760003560e01c806327506f531461005c57806341fe2c651461007c5780634696e8fb14610098578063be4867e0146100b4578063db24fcf3146100d0575b600080fd5b6100646100ec565b604051610073939291906119ce565b60405180910390f35b61009660048036038101906100919190611514565b6105a6565b005b6100b260048036038101906100ad9190611514565b610771565b005b6100ce60048036038101906100c99190611514565b6109e4565b005b6100ea60048036038101906100e59190611514565b610c57565b005b60608060606000600180549050905060008167ffffffffffffffff81111561013d577f4e487b7100000000000000000000000000000000000000000000000000000000600052604160045260246000fd5b60405190808252806020026020018201604052801561017057816020015b606081526020019060019003908161015b5790505b50905060008267ffffffffffffffff8111156101b5577f4e487b7100000000000000000000000000000000000000000000000000000000600052604160045260246000fd5b6040519080825280602002602001820160405280156101e857816020015b60608152602001906001900390816101d35790505b50905060008367ffffffffffffffff81111561022d577f4e487b7100000000000000000000000000000000000000000000000000000000600052604160045260246000fd5b60405190808252806020026020018201604052801561026057816020015b606081526020019060019003908161024b5790505b50905060005b84811015610593576000600182815481106102aa577f4e487b7100000000000000000000000000000000000000000000000000000000600052603260045260246000fd5b9060005260206000200180546102bf90611cb9565b80601f01602080910402602001604051908101604052809291908181526020018280546102eb90611cb9565b80156103385780601f1061030d57610100808354040283529160200191610338565b820191906000526020600020905b81548152906001019060200180831161031b57829003601f168201915b5050505050905060008082604051610350919061197e565b908152602001604051809103902060405180606001604052908160008201805461037990611cb9565b80601f01602080910402602001604051908101604052809291908181526020018280546103a590611cb9565b80156103f25780601f106103c7576101008083540402835291602001916103f2565b820191906000526020600020905b8154815290600101906020018083116103d557829003601f168201915b505050505081526020016001820160009054906101000a900460ff166003811115610446577f4e487b7100000000000000000000000000000000000000000000000000000000600052602160045260246000fd5b600381111561047e577f4e487b7100000000000000000000000000000000000000000000000000000000600052602160045260246000fd5b81526020016001820160019054906101000a900460ff1615151515815250509050818584815181106104d9577f4e487b7100000000000000000000000000000000000000000000000000000000600052603260045260246000fd5b60200260200101819052508060000151868481518110610522577f4e487b7100000000000000000000000000000000000000000000000000000000600052603260045260246000fd5b602002602001018190525061053a8160200151610efb565b848481518110610573577f4e487b7100000000000000000000000000000000000000000000000000000000600052603260045260246000fd5b60200260200101819052505050808061058b90611ceb565b915050610266565b5081838296509650965050505050909192565b60006105b58260888451611212565b90506000816040516105c7919061197e565b908152602001604051809103902060010160019054906101000a900460ff1615610626576040517f08c379a000000000000000000000000000000000000000000000000000000000815260040161061d90611abc565b60405180910390fd5b604051806060016040528083815260200160016003811115610671577f4e487b7100000000000000000000000000000000000000000000000000000000600052602160045260246000fd5b81526020016001151581525060008260405161068d919061197e565b908152602001604051809103902060008201518160000190805190602001906106b7929190611409565b5060208201518160010160006101000a81548160ff02191690836003811115610709577f4e487b7100000000000000000000000000000000000000000000000000000000600052602160045260246000fd5b021790555060408201518160010160016101000a81548160ff02191690831515021790555090505060018190806001815401808255809150506001900390600052602060002001600090919091909150908051906020019061076c929190611409565b505050565b60006107808260888451611212565b9050600081604051610792919061197e565b908152602001604051809103902060010160019054906101000a900460ff166107f0576040517f08c379a00000000000000000000000000000000000000000000000000000000081526004016107e790611a9c565b60405180910390fd5b60008082604051610801919061197e565b908152602001604051809103902090506000600381111561084b577f4e487b7100000000000000000000000000000000000000000000000000000000600052602160045260246000fd5b8160010160009054906101000a900460ff166003811115610895577f4e487b7100000000000000000000000000000000000000000000000000000000600052602160045260246000fd5b146108d5576040517f08c379a00000000000000000000000000000000000000000000000000000000081526004016108cc90611a7c565b60405180910390fd5b826040516020016108e6919061197e565b60405160208183030381529060405280519060200120816000016040516020016109109190611995565b60405160208183030381529060405280519060200120148160000160405160200161093b91906119ac565b6040516020818303038152906040529061098b576040517f08c379a00000000000000000000000000000000000000000000000000000000081526004016109829190611a1a565b60405180910390fd5b5060038160010160006101000a81548160ff021916908360038111156109da577f4e487b7100000000000000000000000000000000000000000000000000000000600052602160045260246000fd5b0217905550505050565b60006109f38260888451611212565b9050600081604051610a05919061197e565b908152602001604051809103902060010160019054906101000a900460ff16610a63576040517f08c379a0000000000000000000000000000000000000000000000000000000008152600401610a5a90611a9c565b60405180910390fd5b60008082604051610a74919061197e565b9081526020016040518091039020905060016003811115610abe577f4e487b7100000000000000000000000000000000000000000000000000000000600052602160045260246000fd5b8160010160009054906101000a900460ff166003811115610b08577f4e487b7100000000000000000000000000000000000000000000000000000000600052602160045260246000fd5b14610b48576040517f08c379a0000000000000000000000000000000000000000000000000000000008152600401610b3f90611adc565b60405180910390fd5b82604051602001610b59919061197e565b6040516020818303038152906040528051906020012081600001604051602001610b839190611995565b604051602081830303815290604052805190602001201481600001604051602001610bae91906119ac565b60405160208183030381529060405290610bfe576040517f08c379a0000000000000000000000000000000000000000000000000000000008152600401610bf59190611a1a565b60405180910390fd5b5060028160010160006101000a81548160ff02191690836003811115610c4d577f4e487b7100000000000000000000000000000000000000000000000000000000600052602160045260246000fd5b0217905550505050565b6000610c668260888451611212565b9050600081604051610c78919061197e565b908152602001604051809103902060010160019054906101000a900460ff1615610cd7576040517f08c379a0000000000000000000000000000000000000000000000000000000008152600401610cce90611abc565b60405180910390fd5b6000610ce683602a6054611212565b9050600060019050600082905060005b8151811015610d8b57602060f81b828281518110610d3d577f4e487b7100000000000000000000000000000000000000000000000000000000600052603260045260246000fd5b602001015160f81c60f81b7effffffffffffffffffffffffffffffffffffffffffffffffffffffffffffff191614610d785760009250610d8b565b8080610d8390611ceb565b915050610cf6565b50600082158015610d9d5750602a8251145b610da8576001610dab565b60005b90506040518060600160405280878152602001826003811115610df7577f4e487b7100000000000000000000000000000000000000000000000000000000600052602160045260246000fd5b815260200160011515815250600086604051610e13919061197e565b90815260200160405180910390206000820151816000019080519060200190610e3d929190611409565b5060208201518160010160006101000a81548160ff02191690836003811115610e8f577f4e487b7100000000000000000000000000000000000000000000000000000000600052602160045260246000fd5b021790555060408201518160010160016101000a81548160ff021916908315150217905550905050600185908060018154018082558091505060019003906000526020600020016000909190919091509080519060200190610ef2929190611409565b50505050505050565b606060006003811115610f37577f4e487b7100000000000000000000000000000000000000000000000000000000600052602160045260246000fd5b826003811115610f70577f4e487b7100000000000000000000000000000000000000000000000000000000600052602160045260246000fd5b1415610fb3576040518060400160405280601581526020017f494e5f5452414e5349545f57484f4c4553414c45520000000000000000000000815250905061120d565b60016003811115610fed577f4e487b7100000000000000000000000000000000000000000000000000000000600052602160045260246000fd5b826003811115611026577f4e487b7100000000000000000000000000000000000000000000000000000000600052602160045260246000fd5b1415611069576040518060400160405280601381526020017f494e5f5452414e5349545f52455441494c455200000000000000000000000000815250905061120d565b600260038111156110a3577f4e487b7100000000000000000000000000000000000000000000000000000000600052602160045260246000fd5b8260038111156110dc577f4e487b7100000000000000000000000000000000000000000000000000000000600052602160045260246000fd5b141561111f576040518060400160405280600981526020017f44454c4956455245440000000000000000000000000000000000000000000000815250905061120d565b600380811115611158577f4e487b7100000000000000000000000000000000000000000000000000000000600052602160045260246000fd5b826003811115611191577f4e487b7100000000000000000000000000000000000000000000000000000000600052602160045260246000fd5b14156111d4576040518060400160405280601381526020017f57484f4c4553414c45525f524543454956454400000000000000000000000000815250905061120d565b6040518060400160405280600e81526020017f696e76616c69645f73746174757300000000000000000000000000000000000081525090505b919050565b60606000849050805183111561125d576040517f08c379a000000000000000000000000000000000000000000000000000000000815260040161125490611a3c565b60405180910390fd5b83831161129f576040517f08c379a000000000000000000000000000000000000000000000000000000000815260040161129690611a5c565b60405180910390fd5b600084846112ad9190611c39565b905060008167ffffffffffffffff8111156112f1577f4e487b7100000000000000000000000000000000000000000000000000000000600052604160045260246000fd5b6040519080825280601f01601f1916602001820160405280156113235781602001600182028036833780820191505090505b50905060005b828110156113fb5783818861133e9190611be3565b81518110611375577f4e487b7100000000000000000000000000000000000000000000000000000000600052603260045260246000fd5b602001015160f81c60f81b8282815181106113b9577f4e487b7100000000000000000000000000000000000000000000000000000000600052603260045260246000fd5b60200101907effffffffffffffffffffffffffffffffffffffffffffffffffffffffffffff1916908160001a90535080806113f390611ceb565b915050611329565b508093505050509392505050565b82805461141590611cb9565b90600052602060002090601f016020900481019282611437576000855561147e565b82601f1061145057805160ff191683800117855561147e565b8280016001018555821561147e579182015b8281111561147d578251825591602001919060010190611462565b5b50905061148b919061148f565b5090565b5b808211156114a8576000816000905550600101611490565b5090565b60006114bf6114ba84611b2d565b611afc565b9050828152602081018484840111156114d757600080fd5b6114e2848285611c77565b509392505050565b600082601f8301126114fb57600080fd5b813561150b8482602086016114ac565b91505092915050565b60006020828403121561152657600080fd5b600082013567ffffffffffffffff81111561154057600080fd5b61154c848285016114ea565b91505092915050565b600061156183836115de565b905092915050565b600061157482611b82565b61157e8185611ba5565b93508360208202850161159085611b5d565b8060005b858110156115cc57848403895281516115ad8582611555565b94506115b883611b98565b925060208a01995050600181019050611594565b50829750879550505050505092915050565b60006115e982611b8d565b6115f38185611bb6565b9350611603818560208601611c86565b61160c81611dc1565b840191505092915050565b600061162282611b8d565b61162c8185611bc7565b935061163c818560208601611c86565b61164581611dc1565b840191505092915050565b600061165b82611b8d565b6116658185611bd8565b9350611675818560208601611c86565b80840191505092915050565b6000815461168e81611cb9565b6116988186611bd8565b945060018216600081146116b357600181146116c4576116f7565b60ff198316865281860193506116f7565b6116cd85611b6d565b60005b838110156116ef578154818901526001820191506020810190506116d0565b838801955050505b50505092915050565b600061170d601f83611bc7565b91507f456e6420696e646578206578636565647320737472696e67206c656e677468006000830152602082019050919050565b600061174d602a83611bc7565b91507f456e6420696e646578206d7573742062652067726561746572207468616e207360008301527f7461727420696e646578000000000000000000000000000000000000000000006020830152604082019050919050565b60006117b3602683611bc7565b91507f5374617475732073686f756c6420626520494e5f5452414e5349545f57484f4c60008301527f4553414c455200000000000000000000000000000000000000000000000000006020830152604082019050919050565b6000611819602d83611bc7565b91507f5472616e73616374696f6e20776974682074686973206361726420494420646f60008301527f6573206e6f7420657869737421000000000000000000000000000000000000006020830152604082019050919050565b600061187f602d83611bc7565b91507f5472616e73616374696f6e20776974682074686973206361726420494420616c60008301527f72656164792065786973747321000000000000000000000000000000000000006020830152604082019050919050565b60006118e5602483611bc7565b91507f5374617475732073686f756c6420626520494e5f5452414e5349545f5245544160008301527f494c4552000000000000000000000000000000000000000000000000000000006020830152604082019050919050565b600061194b600f83611bd8565b91507f48617368206d69736d617463683a2000000000000000000000000000000000006000830152600f82019050919050565b600061198a8284611650565b915081905092915050565b60006119a18284611681565b915081905092915050565b60006119b78261193e565b91506119c38284611681565b915081905092915050565b600060608201905081810360008301526119e88186611569565b905081810360208301526119fc8185611569565b90508181036040830152611a108184611569565b9050949350505050565b60006020820190508181036000830152611a348184611617565b905092915050565b60006020820190508181036000830152611a5581611700565b9050919050565b60006020820190508181036000830152611a7581611740565b9050919050565b60006020820190508181036000830152611a95816117a6565b9050919050565b60006020820190508181036000830152611ab58161180c565b9050919050565b60006020820190508181036000830152611ad581611872565b9050919050565b60006020820190508181036000830152611af5816118d8565b9050919050565b6000604051905081810181811067ffffffffffffffff82111715611b2357611b22611d92565b5b8060405250919050565b600067ffffffffffffffff821115611b4857611b47611d92565b5b601f19601f8301169050602081019050919050565b6000819050602082019050919050565b60008190508160005260206000209050919050565b600081519050919050565b600081519050919050565b6000602082019050919050565b600082825260208201905092915050565b600082825260208201905092915050565b600082825260208201905092915050565b600081905092915050565b6000611bee82611c6d565b9150611bf983611c6d565b9250827fffffffffffffffffffffffffffffffffffffffffffffffffffffffffffffffff03821115611c2e57611c2d611d34565b5b828201905092915050565b6000611c4482611c6d565b9150611c4f83611c6d565b925082821015611c6257611c61611d34565b5b828203905092915050565b6000819050919050565b82818337600083830152505050565b60005b83811015611ca4578082015181840152602081019050611c89565b83811115611cb3576000848401525b50505050565b60006002820490506001821680611cd157607f821691505b60208210811415611ce557611ce4611d63565b5b50919050565b6000611cf682611c6d565b91507fffffffffffffffffffffffffffffffffffffffffffffffffffffffffffffffff821415611d2957611d28611d34565b5b600182019050919050565b7f4e487b7100000000000000000000000000000000000000000000000000000000600052601160045260246000fd5b7f4e487b7100000000000000000000000000000000000000000000000000000000600052602260045260246000fd5b7f4e487b7100000000000000000000000000000000000000000000000000000000600052604160045260246000fd5b6000601f19601f830116905091905056fea2646970667358221220e68f9107c241649ff69885e2d574b01b5dcc215e7fd35de5dbb00510333bbc6d64736f6c63430008000033",
  "linkReferences": {},
  "deployedLinkReferences": {}
}